:020000040000fa
:080000000002040000000000f2
:020000040000fa
:10040000af402100c065240000018800000000000a
:100410000c00070020fc2100010020001100070053
:10042000000020000000e000020032000000020096
:10043000000000004c1b0200000000000040da0039
:100440000000fe004440a90000a520000000e000dc
:100450000300320000002000a00188004440a800f2
:100460000000060091018800800078000000eb0089
:1004700015003700e280400032a0b4009101ba00bc
:10048000e280400032a0b4009102ba00e280400055
:1004900032a0b4000002eb00472bde00f507b200eb
:1004a000602ce10004003a000059eb008301e900f0
:1004b000fdff3e00040037006128e100010032002a
:1004c0000082eb00040007001101ba000200e00006
:1004d000e8ff3a00000006003159ba008301e90044
:1004e0000c0032002159ba008301e90008003200f3
:1004f0000400e00003003a00e280400032a0b400b3
:10050000f5ff370011d9ba008301e900faff3a007c
:100510008100e800e180400032a0b4000000060045
:10052000881f780030a080000000e0000100320049
:100530000000010000a080000000e0000100320087
:1005400000000100f09b80000000e000010032008c
:1005500000000100c09b80000000e00001003200ac
:1005600000000100804021001004e00026003a0055
:1005700010a0800021a080000004eb00d2602600c3
:10058000930120003b000700f2352f00e3c6230053
:1005900000004100818049000804e800e80f540091
:1005a000f6ff3a0010a0880021a08800083821003a
:1005b000d26026009301200010a0800021a08000be
:1005c0002c000700f2352f00e3c623000000410095
:1005d0008180490010a0880021a08800009cbe00f6
:1005e00000402100800f5400f1ff3a00e09f80009e
:1005f000f19f8000d09b8800e19b880011c0b30070
:100600008040210001487800d2602600930120003c
:1006100010a0800021a0800016000700f2352f00f6
:10062000e3c62300000041008180490010a088003b
:1006300021a08800a2372100120178007f0161000b
:100640004211dd0003382100030141001202be0007
:10065000d49b8800e59b88000089be00d09b800069
:10066000e19b80004008de0000f0a1004f0478000c
:1006700000000600020ab900001bb9000200b80021
:100680008100420081004300000006006022b800a3
:10069000060220000000d0008180d2000482d20037
:1006a0008582d2000000a0000202520083825a001c
:1006b000030031000202420083824a000000a100d0
:1006c0000603e900f3ff3a0000000600839f68007c
:1006d0000100e00002003d0060001000e080180012
:1006e0000300e00002003d0060011100e0811900fc
:1006f000e6ff07004f00e00002003b006000100032
:10070000e0801800000006004400f800040f2000fc
:1007100024028800811f78000000e90003027800ad
:100720000080080002000000b20278001301c0003f
:100730003100cd004f0078004400f90000000600b1
:100740004400f800040f200024028800811f780074
:100750000000e90000800800030000003202780079
:10076000b30278001301c0003100cd004f007800c3
:100770004400f900000006004400f800040f2000c7
:1007800024028800010278000000e90000800800cf
:1007900005000000b20278000500ca00b30278002c
:1007a0000580ca000030cb003100cc000400780086
:1007b0004400f900000006008102d0008502e90033
:1007c0000118780002187800051841000318780015
:1007d000041878000518420004087800000006009c
:1007e000800090000101e900c0009000000020009e
:1007f000028009008018780000000600881f780039
:100800008a1f78004400f800080f200028028800a2
:100810003400f8003305900008f02f000a40e10092
:1008200004003200280280004800b300280288003b
:10083000aa0188004600f8004800f8004a00f800c5
:100840004c00f8004e00f8008a0a2c003a0288009a
:100850002304900058028800130490004802880086
:10086000530590007a028800430590006a028800d0
:10087000811f78006305900003029000630252001c
:100880000000e9000080080007000000320d780039
:10089000000000004618c300048009004618c40088
:1008a0004218c4001201c4003100cd00ea019800d2
:1008b0004f0078004e00f9004c00f9004a00f900a2
:1008c0004800f9004600f9003400f9004400f9003e
:0c08d0004f0578004f047800000006007f
:020000040000fa
:0200000401f009
:04000800ffff0000f6
:020000040000fa
:0200000401f009
:04000c00f8ff0000f9
:020000040000fa
:0200000401f009
:040010007bff000072
:020000040000fa
:0200000401f009
:040014007fff00006a
:020000040000fa
:100008001220000012200000122000001220000020
:100018001220000012200000122000001220000010
:100028001220000012200000122000001220000000
:1000380012200000122000001220000012200000f0
:100048001220000012200000881a00001220000070
:1000580012200000122000001220000012200000d0
:1000680012200000122000001220000012200000c0
:1000780012200000122000001220000012200000b0
:1000880012200000122000001220000012200000a0
:100098001220000012200000122000001220000090
:1000a8001220000012200000122000001220000080
:1000b8001220000012200000122000001220000070
:1000c8001220000012200000122000001220000060
:1000d8001220000012200000122000001220000050
:1000e8001220000012200000122000001220000040
:1000f8001220000012200000122000001220000030
:10010800122000001220000012200000122000001f
:1001180078110000122000001220000012200000b8
:1001280012200000122000001220000012200000ff
:1001380012200000122000001220000012200000ef
:1001480012200000122000001220000012200000df
:1001580012200000122000001220000012200000cf
:1001680012200000122000001220000012200000bf
:1001780012200000122000001220000012200000af
:10018800122000001220000012200000122000009f
:10019800122000001220000012200000122000008f
:1001a800122000001220000012200000122000007f
:1001b800122000001220000012200000122000006f
:1001c800122000001220000012200000122000005f
:1001d800122000001220000012200000122000004f
:1001e800122000001220000012200000122000003f
:0801f80012200000122000009b
:020000040000fa
:10020800122000001220000012200000122000001e
:10021800122000001220000012200000122000000e
:1002280012200000122000001220000012200000fe
:1002380012200000122000001220000012200000ee
:100248001220000012200000881a0000122000006e
:1002580012200000122000001220000012200000ce
:1002680012200000122000001220000012200000be
:1002780012200000122000001220000012200000ae
:10028800122000001220000012200000122000009e
:10029800122000001220000012200000122000008e
:1002a800122000001220000012200000122000007e
:1002b800122000001220000012200000122000006e
:1002c800122000001220000012200000122000005e
:1002d800122000001220000012200000122000004e
:1002e800122000001220000012200000122000003e
:1002f800122000001220000012200000122000002e
:10030800122000001220000012200000122000001d
:1003180078110000122000001220000012200000b6
:1003280012200000122000001220000012200000fd
:1003380012200000122000001220000012200000ed
:1003480012200000122000001220000012200000dd
:1003580012200000122000001220000012200000cd
:1003680012200000122000001220000012200000bd
:1003780012200000122000001220000012200000ad
:10038800122000001220000012200000122000009d
:10039800122000001220000012200000122000008d
:1003a800122000001220000012200000122000007d
:1003b800122000001220000012200000122000006d
:1003c800122000001220000012200000122000005d
:1003d800122000001220000012200000122000004d
:1003e800122000001220000012200000122000003d
:0803f800122000001220000099
:020000040000fa
:1008dc00000000000000000001000000000000000b
:1008ec00fcff0000ffff00000700000005000000f7
:1008fc00f7ff0000f5ff00000700000011000000ea
:10090c00feff0000efff0000fcff00000a000000eb
:10091c0003000000020000000d000000f6ff0000c4
:10092c00cfff0000feff0000640000003600000056
:10093c006fff000064ff0000990000002e01000012
:10094c00abff000033fe0000acff000042020000d1
:10095c0064010000b1fd00004afd0000ba01000076
:10096c000204000092ff00001afb000087fe00004a
:10097c0005050000a9030000d8fb000057fa000091
:10098c0051020000fa0600003a000000c6f8000010
:10099c0004fd00004506000060050000bdfb0000e2
:1009ac001af900009e010000400700001b01000026
:1009bc0091f90000a7fc0000b7040000b804000087
:1009cc0071fd0000edfa00007600000087040000c5
:1009dc002a0100009dfc0000e5fd0000090200005a
:1009ec005a02000030ff0000effd0000f2ff000093
:1009fc007e010000830000001fff000064ff000068
:100a0c00630000007d000000eaff0000b6ff00005c
:100a1c00f8ff00001d00000008000000feff0000b1
:100a2c0004000000fbff0000f1ff000002000000ca
:100a3c001200000005000000f2ff0000f7ff0000ac
:100a4c000800000008000000fdff0000fbff000094
:100a5c000000000002000000000000000000000088
:100a6c00000000000000000000000000000000007a
:100a7c000200000000000000fbff0000fdff000072
:100a8c000800000008000000f7ff0000f2ff000063
:100a9c00050000001200000002000000f1ff000041
:100aac00fbff000004000000feff00000800000037
:100abc001d000000f8ff0000b6ff0000eaff000078
:100acc007d0000006300000064ff00001fff0000b9
:100adc00830000007e010000f2ff0000effd00002b
:100aec0030ff00005a02000009020000e5fd000082
:100afc009dfc00002a010000870400007600000025
:100b0c00edfa000071fd0000b8040000b70400000d
:100b1c00a7fc000091f900001b0100004007000039
:100b2c009e0100001af90000bdfb000060050000ea
:100b3c004506000004fd0000c6f800003a00000065
:100b4c00fa0600005102000057fa0000d8fb000022
:100b5c00a90300000505000087fe00001afb000039
:100b6c0092ff000002040000ba0100004afd0000e0
:100b7c00b1fd00006401000042020000acff000067
:100b8c0033fe0000abff00002e01000099000000b6
:100b9c0064ff00006fff00003600000064000000de
:100bac00feff0000cfff0000f6ff00000d0000006c
:100bbc0002000000030000000a000000fcff00001f
:100bcc00efff0000feff0000110000000700000016
:100bdc00f5ff0000f7ff0000050000000700000013
:100bec00ffff0000fcff00000000000001000000ff
:100bfc0000000000000000000000000000000000e9
:100c0c00ffff00000100000003000000ffff0000d8
:100c1c00f9ff0000ffff00000c00000005000000c1
:100c2c00f2ff0000f6ff00000d0000000d000000b8
:100c3c00f7ff0000f6ff000002000000fdff0000bf
:100c4c00010000001e00000008000000b9ff0000b9
:100c5c00d7ff0000750000006c00000064ff00006e
:100c6c0029ff0000a7000000680100007fff0000c2
:100c7c00effd000013000000b8020000ac00000003
:100c8c00c5fc000046fe00007403000002030000d7
:100c9c00bffc0000a1fb00008f0200009e050000bd
:100cac00a1fe000074f90000c9ff0000fa06000064
:100cbc000602000034f900002dfc0000fe050000c7
:100ccc00600500005afb000088f90000f1020000ea
:100cdc00f7060000e5fe00002bf9000062ff0000a3
:100cec002306000006020000fbfa000008fd0000cd
:100cfc00b103000069030000a8fd00009dfc00008a
:100d0c002a01000000030000beff000099fd000056
:100d1c00acff0000ba0100009c000000e5fe0000e2
:100d2c0059ff00009c0000008b000000bbff00007e
:100d3c00a2ff00001500000031000000ffff0000c2
:100d4c00f1ff0000ffff0000fbff0000fbff0000b5
:100d5c000d0000000c000000f4ff0000f2ff00008a
:100d6c00070000000d000000fdff0000f6ff000072
:100d7c00000000000500000001000000feff000064
:100d8c000000000000000000000000000000000057
:100d9c000000000000000000feff00000100000049
:100dac000500000000000000f6ff0000fdff000041
:100dbc000d00000007000000f2ff0000f4ff00002f
:100dcc000c0000000d000000fbff0000fbff00000a
:100ddc00ffff0000f1ff0000ffff000031000000ea
:100dec0015000000a2ff0000bbff00008b000000fc
:100dfc009c00000059ff0000e5fe00009c00000074
:100e0c00ba010000acff000099fd0000beff00001d
:100e1c00000300002a0100009dfc0000a8fd00005a
:100e2c0069030000b103000008fd0000fbfa00009c
:100e3c00060200002306000062ff00002bf90000f0
:100e4c00e5fe0000f7060000f102000088f9000042
:100e5c005afb000060050000fe0500002dfc0000a0
:100e6c0034f9000006020000fa060000c9ff000079
:100e7c0074f90000a1fe00009e0500008f02000026
:100e8c00a1fb0000bffc0000020300007403000083
:100e9c0046fe0000c5fc0000ac000000b8020000db
:100eac0013000000effd00007fff00006801000050
:100ebc00a700000029ff000064ff00006c00000088
:100ecc0075000000d7ff0000b9ff0000080000000b
:100edc001e00000001000000fdff000002000000e9
:100eec00f6ff0000f7ff00000d0000000d000000f1
:100efc00f6ff0000f2ff0000050000000c000000ef
:100f0c00ffff0000f9ff0000ffff000003000000de
:100f1c0001000000ffff00000000000000000000c6
:100f2c000000000000000000ffff000001000000b6
:100f3c0003000000ffff0000f9ff0000ffff0000ae
:100f4c000c00000005000000f2ff0000f6ff00009e
:100f5c000d0000000d000000f7ff0000f6ff000080
:100f6c0002000000fdff0000010000001e00000058
:100f7c0008000000b9ff0000d7ff0000750000005a
:100f8c006c00000064ff000029ff0000a7000000b7
:100f9c00680100007fff0000effd0000130000005f
:100fac00b8020000ac000000c5fc000046fe0000ca
:100fbc007403000002030000bffc0000a1fb000052
:100fcc008f0200009e050000a1fe000074f90000d5
:100fdc00c9ff0000fa0600000602000034f9000008
:100fec002dfc0000fe050000600500005afb00000f
:100ffc0088f90000f1020000f7060000e5fe000091
:10100c002bf9000062ff000023060000060200001e
:10101c00fbfa000008fd0000b103000069030000aa
:10102c00a8fd00009dfc00002a0100000003000048
:10103c00beff000099fd0000acff0000ba010000eb
:10104c009c000000e5fe000059ff00009c00000021
:10105c008b000000bbff0000a2ff00001500000089
:10106c0031000000ffff0000f1ff0000ffff000057
:10107c00fbff0000fbff00000d0000000c00000057
:10108c00f4ff0000f2ff0000070000000d0000005c
:10109c00fdff0000f6ff000000000000050000004e
:1010ac0001000000feff0000000000000000000036
:1010bc000000000000000000000000000000000024
:1010cc00feff000001000000050000000000000011
:1010dc00f6ff0000fdff00000d00000007000000ff
:1010ec00f2ff0000f4ff00000c0000000d000000f7
:1010fc00fbff0000fbff0000ffff0000f1ff000002
:10110c00ffff00003100000015000000a2ff0000ee
:10111c00bbff00008b0000009c00000059ff00008a
:10112c00e5fe00009c000000ba010000acff0000ce
:10113c0099fd0000beff0000000300002a01000022
:10114c009dfc0000a8fd000069030000b103000035
:10115c0008fd0000fbfa0000060200002306000058
:10116c0062ff00002bf90000e5fe0000f70600000e
:10117c00f102000088f900005afb00006005000035
:10118c00fe0500002dfc000034f9000006020000f2
:10119c00fa060000c9ff000074f90000a1fe00006f
:1011ac009e0500008f020000a1fb0000bffc0000a8
:1011bc00020300007403000046fe0000c5fc0000a2
:1011cc00ac000000b802000013000000effd0000ae
:1011dc007fff000068010000a700000029ff00004d
:1011ec0064ff00006c00000075000000d7ff0000d9
:1011fc00b9ff0000080000001e0000000100000004
:10120c00fdff000002000000f6ff0000f7ff0000e9
:10121c000d0000000d000000f6ff0000f2ff0000c2
:10122c00050000000c000000ffff0000f9ff0000ab
:10123c00ffff00000300000001000000ffff0000a2
:10124c000000000000000000000000000000000092
:10125c0001000000ffff0000fdff00000200000085
:10126c0007000000fdff0000f4ff00000300000079
:10127c0010000000feff0000eeff0000ffff00006a
:10128c000f00000002000000fbff00000100000046
:10129c00f2ff0000f4ff00002c000000250000000d
:1012ac00abff0000adff0000840000009c000000bc
:1012bc004cff0000fcfe0000dc0000008d01000073
:1012cc000dff0000ccfd0000ed000000f40200005a
:1012dc0040ff00003ffc0000650000008b04000094
:1012ec0028000000befa00001eff0000d40500001c
:1012fc00c1010000d0f9000049fd00004b060000c0
:10130c00b1030000e0f9000065fb0000b00500002f
:10131c0060050000fcfa000010fa00002a0400002e
:10132c003e060000cbfc0000baf900003a020000b7
:10133c0009060000b3fe00006ffa00007f000000f9
:10134c00eb04000025000000d8fb000068ff000043
:10135c005a030000dc0000006efd00000cff0000d2
:10136c00dd010000eb000000bcfe000036ff0000b9
:10137c00cc0000009c0000008cff000094ff0000db
:10138c00390000003f000000e9ff0000e4ff00000e
:10139c000500000003000000010000000b0000002d
:1013ac00ffff0000efff0000ffff00001100000036
:1013bc0003000000f2ff0000fdff00000900000028
:1013cc0003000000fbff0000feff00000200000015
:1013dc000100000000000000000000000000000000
:1013ec00000000000100000002000000feff0000f1
:1013fc00fbff00000300000009000000fdff0000df
:10140c00f2ff00000300000011000000ffff0000cd
:10141c00efff0000ffff00000b00000001000000c8
:10142c000300000005000000e4ff0000e9ff0000dd
:10143c003f0000003900000094ff00008cff00000a
:10144c009c000000cc00000036ff0000bcfe000039
:10145c00eb000000dd0100000cff00006efd000041
:10146c00dc0000005a03000068ff0000d8fb0000fd
:10147c0025000000eb0400007f0000006ffa000064
:10148c00b3fe0000090600003a020000baf90000a1
:10149c00cbfc00003e0600002a04000010fa0000fd
:1014ac00fcfa000060050000b005000065fb0000c0
:1014bc00e0f90000b10300004b06000049fd0000fc
:1014cc00d0f90000c1010000d40500001eff00008f
:1014dc00befa0000280000008b040000650000002c
:1014ec003ffc000040ff0000f4020000ed00000093
:1014fc00ccfd00000dff00008d010000dc000000a1
:10150c00fcfe00004cff00009c000000840000006a
:10151c00adff0000abff0000250000002c00000018
:10152c00f4ff0000f2ff000001000000fbff0000d0
:10153c00020000000f000000ffff0000eeff0000a3
:10154c00feff00001000000003000000f4ff00008c
:10155c00fdff00000700000002000000fdff00007e
:10156c00ffff000001000000000000000000000070
:10157c00000000009201000024030000b6040000eb
:10158c0047060000d90700006a090000fb0a0000aa
:10159c008b0c00001b0e0000ab0f0000391100007b
:1015ac00c712000055140000e11500006d17000073
:1015bc00f8180000821a00000b1c0000931d00009c
:1015cc00191f00009f20000023220000a62300000a
:1015dc0027250000a726000026280000a3290000cc
:1015ec001e2b0000982c0000102e0000862f0000ef
:1015fc00fb3000006d320000de3300004d35000082
:10160c00b9360000243800008c390000f23a000092
:10161c00563c0000b73d0000163f00007340000030
:10162c00cd410000254300007a440000cc45000069
:10163c001c47000069480000b3490000fa4a00004a
:10164c003f4c0000804d0000bf4e0000fa4f0000e0
:10165c0033510000685200009a530000c954000036
:10166c00f45500001d57000042580000635900005b
:10167c00815a00009c5b0000b35c0000c65d00005a
:10168c00d65e0000e25f0000eb600000f06100003d
:10169c00f1620000ee630000e7640000dd6500000d
:1016ac00ce660000bc670000a56800008b690000d6
:1016bc006c6a00004a6b0000236c0000f86c0000a0
:1016cc00c96d0000956e00005e6f00002270000076
:1016dc00e17000009d710000547200000673000060
:1016ec00b57300005e74000003750000a475000063
:1016fc0040760000d87600006b770000f977000088
:10170c00837800000879000089790000047a0000d1
:10171c007c7a0000ee7a00005c7b0000c47b000049
:10172c00297c0000887c0000e27c0000387d0000f1
:10173c00897d0000d57d00001c7e00005e7e0000cf
:10174c009c7e0000d47e0000087f0000377f0000e4
:10175c00617f0000867f0000a67f0000c17f000033
:10176c00d77f0000e87f0000f57f0000fc7f0000c1
:10177c00ff7f0000fc7f0000f57f0000e87f000089
:10178c00d77f0000c17f0000a67f0000867f00008d
:10179c00617f0000377f0000087f0000d47e0000ce
:1017ac009c7e00005e7e00001c7e0000d57d00004b
:1017bc00897d0000387d0000e27c0000887c000000
:1017cc00297c0000c47b00005c7b0000ee7a0000ea
:1017dc007c7a0000047a0000897900000879000006
:1017ec0083780000f97700006b770000d876000052
:1017fc0040760000a4750000037500005e740000c4
:10180c00b573000006730000547200009d71000057
:10181c00e1700000227000005e6f0000956e000009
:10182c00c96d0000f86c0000236c00004a6b0000ce
:10183c006c6a00008b690000a5680000bc670000a2
:10184c00ce660000dd650000e7640000ee6300007a
:10185c00f1620000f0610000eb600000e25f00004c
:10186c00d65e0000c65d0000b35c00009c5b00000f
:10187c00815a000063590000425800001d570000b7
:10188c00f4550000c95400009a530000685200003f
:10189c0033510000fa4f0000bf4e0000804d000095
:1018ac003f4c0000fa4a0000b349000069480000b0
:1018bc001c470000cc4500007a4400002543000082
:1018cc00cd41000073400000163f0000b73d000002
:1018dc00563c0000f23a00008c390000243800001d
:1018ec00b93600004d350000de3300006d320000cb
:1018fc00fb300000862f0000102e0000982c0000fa
:10190c001e2b0000a329000026280000a72600009b
:10191c0027250000a6230000232200009f200000a2
:10192c00191f0000931d00000b1c0000821a000000
:10193c00f81800006d170000e115000055140000a8
:10194c00c712000039110000ab0f00001b0e000085
:10195c008b0c0000fb0a00006a090000d90700008c
:10196c0047060000b60400002403000092010000aa
:10197c00000000006efe0000dcfc00004afb0000d2
:10198c00b9f9000027f8000096f6000005f50000f4
:10199c0075f30000e5f1000055f00000c7ee000003
:1019ac0039ed0000abeb00001fea000093e80000eb
:1019bc0008e700007ee50000f5e300006de20000a2
:1019cc00e7e0000061df0000dddd00005adc000014
:1019dc00d9da000059d90000dad700005dd6000032
:1019ec00e2d4000068d30000f0d100007ad00000ef
:1019fc0005cf000093cd000022cc0000b3ca00003c
:101a0c0047c90000dcc7000074c600000ec500000a
:101a1c00aac3000049c20000eac000008dbf00004c
:101a2c0033be0000dbbc000086bb000034ba0000f3
:101a3c00e4b8000097b700004db6000006b50000f2
:101a4c00c1b3000080b2000041b1000006b000003c
:101a5c00cdae000098ad000066ac000037ab0000c6
:101a6c000caa0000e3a80000bea700009da6000081
:101a7c007fa5000064a400004da300003aa2000062
:101a8c002aa100001ea00000159f0000109e00005f
:101a9c000f9d0000129c0000199b0000239a00006f
:101aac0032990000449800005b9700007596000086
:101abc0094950000b6940000dd930000089300009c
:101acc00379200006b910000a2900000de8f0000a6
:101adc001f8f0000638e0000ac8d0000fa8c00009c
:101aec004b8c0000a28b0000fd8a00005c8a000079
:101afc00c089000028890000958800000788000034
:101b0c007d870000f886000077860000fc850000c9
:101b1c008485000012850000a48400003c84000031
:101b2c00d7830000788300001e830000c882000069
:101b3c00778200002b820000e4810000a28100006b
:101b4c00648100002c810000f8800000c980000036
:101b5c009f8000007a8000005a8000003f800000c7
:101b6c0029800000188000000b8000000480000019
:101b7c0001800000048000000b8000001880000031
:101b8c00298000003f8000005a8000007a8000000d
:101b9c009f800000c9800000f88000002c810000ac
:101bac0064810000a2810000e48100002b8200000f
:101bbc0077820000c88200001e830000788300003a
:101bcc00d78300003c840000a48400001285000030
:101bdc0084850000fc85000077860000f8860000f4
:101bec007d87000007880000958800002889000088
:101bfc00c08900005c8a0000fd8a0000a28b0000f6
:101c0c004b8c0000fa8c0000ac8d0000638e000041
:101c1c001f8f0000de8f0000a29000006b9100006f
:101c2c003792000008930000dd930000b69400008a
:101c3c0094950000759600005b9700004498000096
:101c4c0032990000239a0000199b0000129c00009e
:101c5c000f9d0000109e0000159f00001ea00000ac
:101c6c002aa100003aa200004da3000064a40000c9
:101c7c007fa500009da60000bea70000e3a8000001
:101c8c000caa000037ab000066ac000098ad000059
:101c9c00cdae000006b0000041b1000080b20000e3
:101cac00c1b3000006b500004db6000097b70000a8
:101cbc00e4b8000034ba000086bb0000dbbc0000b6
:101ccc0033be00008dbf0000eac0000049c2000016
:101cdc00aac300000ec5000074c60000dcc70000db
:101cec0047c90000b3ca000022cc000093cd00000d
:101cfc0005cf00007ad00000f0d1000068d30000be
:101d0c00e2d400005dd60000dad7000059d90000fb
:101d1c00d9da00005adc0000dddd000061df0000d4
:101d2c00e7e000006de20000f5e300007ee5000056
:101d3c0008e7000093e800001fea0000abeb00008e
:101d4c0039ed0000c7ee000055f00000e5f1000091
:101d5c0075f3000005f5000096f6000027f800006a
:101d6c00b9f900004afb0000dcfc00006efe00002c
:020000040000fa
:101d7c000600fa00100798002107980081e2a900dc
:101d8c0007e2a90007a2a9000762a9000742a9005f
:101d9c000722a8000702a9000011200020108800cb
:101dac00e442a800e462a80000702000001488003f
:101dbc00f00020001014880010002000401488004f
:101dcc0010002000601488001e009000b09b88005a
:101ddc001e009000ae009000010878002e009000cc
:101dec0001102000808040001e009000110098001f
:101dfc002e00900001202000808040001e009000ea
:101e0c00210098002e0090000130200080804000be
:101e1c001e009000310098000000eb00000f7800cd
:101e2c00080037001e007800000040008000780099
:101e3c002e009000808040000000eb0080087800ad
:101e4c001e0fe800f01f20009e0f1000f5ff34005d
:101e5c000080fa00000006000200fa00000f780073
:101e6c009e0078000000eb00900898001e0078009f
:101e7c0010089000800078000100a0001e0078007f
:101e8c00110898001e00780010089000800078005f
:101e9c000110a0001e007800110898001e007800a8
:101eac0010007800800078001e0078007100980007
:101ebc001e00780020009000800078001e00780042
:101ecc00010898009e0078000000eb00c00098000c
:101edc009e007800f0072000d00098009e0078004b
:101eec00f0072000e00098001e0078000008900029
:101efc0010007800c014880007e2a8008b80a900ad
:101f0c009b80a800210c20009140780080cfb3006a
:101f1c0000c060000024a000c2e0b70081e2a8006d
:101f2c000080fa00000006000200fa00000f7800a2
:101f3c0081e2a9009b80a9000080fa000000060045
:101f4c000a00fa0020079800310798004207980011
:101f5c002e009000100890004200de000000a2004d
:101f6c00610060000004e000040032002e009000cc
:101f7c009000900011079800030037002e0090008d
:101f8c009000780011079800ce0090000008200007
:101f9c00808f500002003400000820004007980099
:101fac000000eb00000f78000d0037001e007800d9
:101fbc0000004000800078003e009000008140004e
:101fcc001e00780000004000800078001e00900089
:101fdc000080400010007800000978001e0fe80017
:101fec004e0090009e0f1000f0ff35000400fc0026
:101ffc002e00900010089000800078000100a000d6
:10200c002e009000110898000000fc000080fa00df
:10201c00000006000400fa00000f78001e00780093
:10202c00100890000000d1000000a20061006000c8
:10203c000004e000030032000000eb0010079800e1
:10204c000200370010002000100798001e009000be
:10205c000080fa00000006000400fa00000f78006f
:10206c001e007800100890000000a20061006000c3
:10207c000004e000030032000000eb0010079800a1
:10208c000200370010002000100798001e0090007e
:10209c000080fa00000006000a00fa0020079800f1
:1020ac0031079800420798002e009000100890000d
:1020bc004200de000000a200610060000004e000ad
:1020cc00040032002e009000b00090001107980020
:1020dc00030037002e009000a0009000110798001c
:1020ec00ce00900000082000808f500002003400c9
:1020fc0000082000400798002e009000ce009000b1
:10210c00610098000000eb00000f78000d00370014
:10211c001e00780000004000800078001e00900037
:10212c00008140001e007800000040008000780014
:10213c003e009000008040001000780000097800fc
:10214c001e0fe8004e0090009e0f1000f0ff3500af
:10215c000400fc002e009000100890008000780015
:10216c000110a0002e009000110898000000fc0047
:10217c000080fa00000006000a00fa001007980020
:10218c0021079800320798003e009000100078005c
:10219c00000f78001e4090006140600010479800ce
:1021ac002e00900000004000200798001e40900078
:1021bc008080fb002e00900001007000200798002a
:1021cc000602a80006c2bf00614060000004e000e7
:1021dc00fcff3a00400320001010880009c2bf0029
:1021ec000044b2000004e000fcff3a0009c2bf004a
:1021fc0001c8b300014060000004e0000800320098
:10220c000642a80006c2bf00644060000004e00063
:10221c00fcff3a000080eb00400798002e003700ce
:10222c002e0090001010880009c2bf000044b200bc
:10223c000004e000fcff3a0009c2bf0001c8b30073
:10224c00014060000004e000080032000642a800d3
:10225c0006c2bf00644060000004e000fcff3a00ce
:10226c000080eb00400798001b0037001e407800f0
:10227c000080fb001010880009c2bf000044b200af
:10228c000004e000fcff3a0009c2bf0001c8b30023
:10229c00014060000004e000080032000642a80083
:1022ac0006c2bf00644060000004e000fcff3a007e
:1022bc000080eb0040079800070037000642a8009a
:1022cc0006c2bf00644060000004e000fcff3a005e
:1022dc0010002000400798004e0090000080fa008b
:1022ec0000000600809fbe00821f78000000fa00ec
:1022fc008b80a900b09b8000f0009000b09b800008
:10230c00400090000000400080804000801480005d
:10231c0080087800b09b800080089000b09b800003
:10232c004000900000004000008040001000780049
:10233c00c0148800b19b8000410090000000e800b0
:10234c00c0009800b09b8000c0009000b09b800043
:10235c0050009000808f50002f003a00b19b8000fd
:10236c00b09b8000100890000020a20090089800fc
:10237c00b09b8000100890004200de0061006000fd
:10238c000004e00009003200b19b8000b09b80008b
:10239c0010009000f0009800b19b8000b09b800072
:1023ac00300090008008980008003700b19b800036
:1023bc00b09b800010007800f0009800b19b80006a
:1023cc00b09b80002000900080089800b19b80009a
:1023dc000000eb00c0009800b19b8000b09b800017
:1023ec0060009000d0009800b29b8000b09b8000f1
:1023fc0090089000e0ff2f0000806000100998000a
:10240c00b29b8000b09b800090089000d0ff2f0002
:10241c0000806000100998000080fa004f017800dd
:10242c004f00be00004006000600fa00200798008e
:10243c0010002000100798000e81e8008000eb00cf
:10244c002e0090004cff0700000f78000080eb007e
:10245c009e0f100001003a00ffff3700f00620002d
:10246c00100798000e81e800110020002e0090004b
:10247c0041ff07000080eb009e0f100001003a00a6
:10248c00ffff370050012000100798000e81e80074
:10249c00210020002e00900037ff07000080eb0089
:1024ac009e0f100001003a00ffff3700900820003b
:1024bc00100798000e81e800310020002e009000db
:1024cc002dff07000080eb009e0f100001003a006a
:1024dc00ffff370080012000100798000e81e800f4
:1024ec00410020002e00900023ff07000080eb002d
:1024fc009e0f100001003a00ffff3700901a2000d9
:10250c00100798000e81e800610020002e0090005a
:10251c0019ff07000080eb009e0f100001003a002d
:10252c00ffff3700a0002000100798000e81e80084
:10253c00710020002e0090000fff07000080eb00c0
:10254c009e0f100001003a00ffff370040002000f2
:10255c00100798000e81e800810020002e009000ea
:10256c0005ff07000080eb009e0f100001003a00f1
:10257c00ffff370080102000100798000e81e80044
:10258c00e10020002e009000fbfe07000080eb0015
:10259c009e0f100001003a00ffff370000042000de
:1025ac00100798000e81e800b10120002e00900069
:1025bc00f1fe07000080eb009e0f100001003a00b6
:1025cc00ffff370050002000100798000e81e80034
:1025dc00c10120002e009000e7fe07000080eb00f8
:1025ec009e0f100001003a00ffff3700f00320009f
:1025fc00100798000e81e800d10120002e009000f9
:10260c00ddfe07000080eb009e0f100001003a0079
:10261c00ffff3700d0072000100798000e81e8005c
:10262c00e10120002e009000d3fe07000080eb009b
:10263c009e0f100001003a00ffff37000010200031
:10264c00100798000e81e800e10120002e00900098
:10265c00c9fe07000080eb009e0f100001003a003d
:10266c00ffff370080012000100798000e81e80062
:10267c00410220002e009000bffe07000080eb00fe
:10268c009e0f100001003a00ffff3700c000200031
:10269c00100798000e81e800510220002e009000d7
:1026ac00b5fe07000080eb009e0f100001003a0001
:1026bc00ffff370030092000100798000e81e8005a
:1026cc00610220002e009000abfe07000080eb00a2
:1026dc009e0f100001003a00ffff3700900e200003
:1026ec00100798000e81e800710220002e00900067
:1026fc00a1fe07000080eb009e0f100001003a00c5
:10270c00ffff370040002000100798000e81e80002
:10271c00c10220002e00900097fe07000080eb0005
:10272c009e0f100001003a00ffff37000000eb0085
:10273c00100798000e81e800f10220002e00900096
:10274c008dfe07000080eb009e0f100001003a0088
:10275c00ffff370010002000100798000e81e800e2
:10276c00810320002e00900083fe07000080eb0008
:10277c009e0f100001003a00ffff37000080fa00a6
:10278c00000006000600fa00200798001000200048
:10279c00100798000e81e8008000eb002e009000de
:1027ac0075fe0700000f78000080eb009e0f1000f4
:1027bc0001003a00ffff3700f006200010079800d8
:1027cc000e81e800110020002e0090006afe070028
:1027dc000080eb009e0f100001003a00ffff370055
:1027ec0050012000100798000e81e8002100200005
:1027fc002e00900060fe07000080eb009e0f100082
:10280c0001003a00ffff37009008200010079800e5
:10281c000e81e800310020002e00900056fe0700cb
:10282c000080eb009e0f100001003a00ffff370004
:10283c0080012000100798000e81e8004100200064
:10284c002e0090004cfe07000080eb009e0f100045
:10285c0001003a00ffff3700901620001007980087
:10286c000e81e800610020002e00900042fe07005f
:10287c000080eb009e0f100001003a00ffff3700b4
:10288c0060002000100798000e81e8007100200005
:10289c002e00900038fe07000080eb009e0f100009
:1028ac0001003a00ffff370040002000100798009d
:1028bc000e81e800810020002e0090002efe070003
:1028cc000080eb009e0f100001003a00ffff370064
:1028dc0080012000100798000e81e80041022000c2
:1028ec002e00900024fe07000080eb009e0f1000cd
:1028fc0001003a00ffff3700c000200010079800cd
:10290c000e81e800510220002e0090001afe0700f4
:10291c000080eb009e0f100001003a00ffff370013
:10292c0030092000100798000e81e8006102200099
:10293c002e00900010fe07000080eb009e0f100090
:10294c0001003a00ffff3700900e2000100798009e
:10295c000e81e800710220002e00900006fe070098
:10296c000080eb009e0f100001003a00ffff3700c3
:10297c0040002000100798000e81e800c1022000e2
:10298c002e009000fcfd07000080eb009e0f100055
:10299c0001003a00ffff37000000eb001007980021
:1029ac000e81e800f10220002e009000f2fd0700dd
:1029bc000080eb009e0f100001003a00ffff370073
:1029cc0010002000100798000e81e8008103200001
:1029dc002e009000e8fd07000080eb009e0f100019
:1029ec0001003a00ffff3700900f200010079800fd
:1029fc000e81e800b10020002e009000defd0700e3
:102a0c000080eb009e0f100001003a00ffff370022
:102a1c000080fa00000006000800fa002007980069
:102a2c00310798002ca3a800c6a2a900caa2a8002e
:102a3c006000b800008fbe000500370000000000e9
:102a4c0010002000010020001e0f40005e9748007f
:102a5c00f07f200001002000be0f1000ae8f180088
:102a6c00f6ff3400ae009000a19b8800a19b800073
:102a7c003e009000800878004382a9004362a900c0
:102a8c004342a9004322a8004302a80042c2a90065
:102a9c0042a2a80042e2a900212420009140780023
:102aac0030ceb30000c060008041b30042e2b700fa
:102abc002124200091407800c0cfb30000c06000fa
:102acc000014a00042e2b70045e2a9002c43a80084
:102adc00c642a900ca42a80041a2a9000080fa007f
:102aec00000006000200fa00000f78009540a800d4
:102afc0041e2a8009e0078000000eb00a0009800c6
:102b0c009e0078000000eb00900098009e0078007a
:102b1c000000eb00c00098009e0078000010200020
:102b2c00b0009800ca42a8000080fa00000006001d
:102b3c001600fa0020079800320798004307980007
:102b4c0051079800640798002e0090001000780040
:102b5c00000f78009e00780020c0b30080487800f9
:102b6c001e03e8003e009000ce0090000200200002
:102b7c00f30f200000027800810278000200780038
:102b8c008300780000016200018062006102b800dd
:102b9c0074079800050f98007e0090008e08900036
:102bac00c000dd000000200070079800010f9800a5
:102bbc007e0090008e0890006112b8007407980097
:102bcc00050f98007e0190008e09900002007000a5
:102bdc00838070004088de00cf80de00004b7800e0
:102bec001e83e8003e009000ce00900002f02f0003
:102bfc0003002000000278008102780002007800b7
:102c0c008300780000016200018062006102b8005c
:102c1c00140f9800250f98001e089000ae08900025
:102c2c00c000dd0000002000100f9800210f98005c
:102c3c001e089000ae0890006112b800140f9800a6
:102c4c00250f98001e099000ae099000020070003c
:102c5c0083807000c809dd004800de000080710030
:102c6c00c888de00004b78001e0278006301420029
:102c7c003e0090008040780000c0eb0000c0600077
:102c8c0000497800ee00900000102000808f50006a
:102c9c000200340000102000600798009e027800ab
:102cac0063804200104078000004e0001000320005
:102cbc009e00780063804000104078008080fb000c
:102ccc0000102000810050006e009000808f50009a
:102cdc0007003d001e0178006300410010407800a1
:102cec008080fb000010200001005000600798005d
:102cfc000000eb00100798000b0037001e0090003e
:102d0c001e004000640140009e0090005e00900098
:102d1c000080400010407800004978001e009000b0
:102d2c000000e80010079800ee0090001e009000d4
:102d3c00808f5000f1ff3e002e009000200090008c
:102d4c00800078000120a0002e0090002100980047
:102d5c006e009000e40040002e00900031009800be
:102d6c00ca42a9001e007800104078000080fb00c9
:102d7c00401288006e0090000080fa0000000600ef
:102d8c001600fa00200798003207980043079800b5
:102d9c0051079800640798003e009000ce00900008
:102dac0002002000f30f200000027800810278005e
:102dbc00020078008300780000016200018062004c
:102dcc006102b80074079800050f98007e0090000f
:102ddc008e089000c000dd000000200070079800f5
:102dec00010f98007e0090008e0890006112b800d0
:102dfc0074079800050f98007e0190008e099000d2
:102e0c0002007000838070004088de00cf80de00fe
:102e1c00204798003e009000ce00900002f02f005a
:102e2c000300200000027800810278000200780084
:102e3c008300780000016200018062006102b8002a
:102e4c00140f9800250f98001e089000ae089000f3
:102e5c00c000dd0000002000100f9800210f98002a
:102e6c001e089000ae0890006112b800140f980074
:102e7c00250f98001e099000ae099000020070000a
:102e8c0083807000c809dd004800de0000807100fe
:102e9c00c888de00104798003e0090008040780003
:102eac0000c0eb0000cf6000ee009000001020008e
:102ebc00808f500004003400ae0090000010200001
:102ecc00b0009800030037002e0090006e029000b6
:102edc0034009800de0090002e0090005100980005
:102eec00ae0090000000eb00c0009800ca42a900a0
:102efc0030002000401288002e009000200090002e
:102f0c000000a200610060000004e000faff3a003b
:102f1c002e009000a0009000e0ff2f008080600049
:102f2c002e009000210098002e4090000000fb0025
:102f3c00401288002e009000200090000000a2009b
:102f4c00610060000004e000faff3a002e009000df
:102f5c00a0009000e0ff2f00808060002e00900009
:102f6c00210098001e4090000000fb0040128800d9
:102f7c002e009000200090000000a2006100600074
:102f8c000004e000faff3a002e009000a000900030
:102f9c00e0ff2f00808060002e0090002100980040
:102fac001e00fb00401288002e00900020009000b4
:102fbc000000a200610060000004e000faff3a008b
:102fcc002e009000a0009000e0ff2f008080600099
:102fdc002e009000210098000000eb0040128800a9
:102fec002e00900020009000800078000110a000be
:102ffc002e009000210098000080fa0000000600ce
:10300c000400fa00000f78001e00780020009000e9
:10301c004200de00610060000004e00003003200aa
:10302c0010002000100798002b0037001e007800bd
:10303c00200090000000d100610060000004e0005e
:10304c000300320010002000100798002200370007
:10305c00ca42a90050002000401288001e007800cf
:10306c00200090000000a200610060000004e0005d
:10307c00faff3a001e007800a0009000e0ff2f003d
:10308c00808060001e007800210098000000eb009a
:10309c00401288001e007800200090000000a20062
:1030ac00610060000004e000faff3a001e007800a6
:1030bc00a0009000e0ff2f00808060001e007800d0
:1030cc0021009800ca42a8001e0078001000900051
:1030dc0061006000100798001e0090000080fa004c
:1030ec00000006000e00fa004007980051079800f7
:1030fc00620798005e009000e10f500011003a004a
:10310c00ca42a90020062000401288004e00900000
:10311c00200090000000a200610060000004e000ac
:10312c00faff3a004e009000a0009000e0ff2f0044
:10313c00808060004e00900021009800ca42a800d8
:10314c00ee0037005e009000e20f500031003a00b4
:10315c006e00900020079800ca42a9005001200080
:10316c00401288004e009000200090000000a20049
:10317c00610060000004e000faff3a004e0090008d
:10318c00a0009000e0ff2f00808060004e009000b7
:10319c00210098000000eb00300798001800370061
:1031ac000000eb00401288004e00900020009000c0
:1031bc000000a200610060000004e000faff3a0089
:1031cc004e009000a0009000e0ff2f008080600077
:1031dc004e009000210098003e0090008000780086
:1031ec002e009000808040004e0090001000900057
:1031fc00804878003e0090000000e80030079800fe
:10320c003e009000e30f5000e5ff3400ca42a800d6
:10321c00ba0037005e009000e30f500026003a0021
:10322c006e00900010079800ca42a90050002000c0
:10323c00401288004e009000200090000000a20078
:10324c00610060000004e000faff3a004e009000bc
:10325c00a0009000e0ff2f00808060004e009000e6
:10326c00210098000000eb00401288004e009000f6
:10327c00200090000000a200610060000004e0004b
:10328c00faff3a004e009000a0009000e0ff2f00e3
:10329c00808060004e009000210098004e0090004d
:1032ac0010009000804078001e00900001487800cb
:1032bc00ca42a800910037005e009000e40f500055
:1032cc0011003a00ca42a900600020004012880098
:1032dc004e009000200090000000a20061006000f1
:1032ec000004e000faff3a004e009000a0009000ad
:1032fc00e0ff2f00808060004e00900021009800bd
:10330c00ca42a8007d0037005e009000e60f500016
:10331c0011003a00ca42a900400020004012880067
:10332c004e009000200090000000a20061006000a0
:10333c000004e000faff3a004e009000a00090005c
:10334c00e0ff2f00808060004e009000210098006c
:10335c00ca42a800690037005e009000e70f5000d9
:10336c0043003a006e009000000f7800ca42a9009a
:10337c0020052000401288004e0090002000900094
:10338c000000a200610060000004e000faff3a00b7
:10339c004e009000a0009000e0ff2f0080806000a5
:1033ac004e009000210098001e80e800104078002c
:1033bc000000fb00401288004e009000200090009e
:1033cc000000a200610060000004e000faff3a0077
:1033dc004e009000a0009000e0ff2f008080600065
:1033ec004e009000210098001e00e800104078006c
:1033fc000000fb00401288004e009000200090005e
:10340c000000a200610060000004e000faff3a0036
:10341c004e009000a0009000e0ff2f008080600024
:10342c004e009000210098001e007800104078009b
:10343c000000fb00401288004e009000200090001d
:10344c000000a200610060000004e000faff3a00f6
:10345c004e009000a0009000e0ff2f0080806000e4
:10346c004e00900021009800ca42a80023003700ab
:10347c005e009000e50f500020003a00ca42a900ff
:10348c0010002000401288004e0090002000900098
:10349c000000a200610060000004e000faff3a00a6
:1034ac004e009000a0009000e0ff2f008080600094
:1034bc004e009000210098006e00900010407800a3
:1034cc000000fb00401288004e009000200090008d
:1034dc000000a200610060000004e000faff3a0066
:1034ec004e009000a0009000e0ff2f008080600054
:1034fc004e00900021009800ca42a8000080fa00fb
:10350c0000000600809fbe00821f78000000fa00b9
:10351c008540a900a09b8000200090004200de00a6
:10352c00610060000004e00024003200a19b8000d8
:10353c004012800090009800a19b800041009000f8
:10354c000000e800c0009800a09b8000c000900024
:10355c00a09b800030009000808f500009003d003f
:10356c00a09b800090007800a09b80004000900001
:10357c0000804000104078000000fb0040128800e2
:10358c003e003700a29b8000a09b8000a000900012
:10359c00b0ff2f000080600020019800a19b8000ec
:1035ac000000eb00b0009800a19b80000000eb0035
:1035bc00c0009800ca42a80030003700a09b8000d1
:1035cc00200090000000d100610060000004e000c9
:1035dc0022003200a09b8000d0009000a09b8000b5
:1035ec0040009000808040004012800080487800ad
:1035fc00a19b8000410090000000e800c0009800f2
:10360c00a09b8000c0009000a09b80003000900028
:10361c00808f500003003d000000eb00401288003a
:10362c0016003700a29b8000a09b8000a000900099
:10363c00d0ff2f000080600020019800a19b80002b
:10364c000000eb00b0009800a19b80000000eb0094
:10365c00c0009800ca42a80008003700a19b800057
:10366c00a09b8000200090000000a000a00098000b
:10367c00a19b800040128000900098000080fa000e
:10368c004f0178004f00be00004006000200fa0017
:10369c0090022000303a880044c7bf00f043b200cb
:1036ac0044e7b700417420009140780000ceb3008d
:1036bc0000c0600044e7b7000000eb00403a88000f
:1036cc001200200081072000a00920003374200084
:1036dc0081497800804978008249780012002000e6
:1036ec0061042000700520002374200081497800bb
:1036fc00804978008249780043c7bf000047b20078
:10370c00f04f5000fcff3a0042c7bf000042b2002d
:10371c000004e000fcff3200da010700609b80002f
:10372c000180200092f90700709b800001c02000ee
:10373c00b9fc0700709b8000eafc07000000eb005e
:10374c0040988800609b8000c3f90700609b800054
:10375c000cfc07007b0007000000eb0020988800a1
:10376c00401f2000a2000700209880001a010700cb
:10377c0000003700609b800037fa07000000e00073
:10378c00fcff3a00609b80000208200041d0200022
:10379c00ebf90700f3ff2700422021004110210024
:1037ac0000082000b20007004200210041f0200078
:1037bc0040d020005f0107004310210042f02000a0
:1037cc0041f0200000082000daf30700432021001c
:1037dc00420021004100210000082000d5f3070021
:1037ec004300210042f0200041e0200000082000ae
:1037fc00def30700609b800006fa07000000e00083
:10380c00fcff3a00609b80000208200041e0200091
:10381c0021fa0700ae0107000000e0002a00320088
:10382c00209880000000e8002098880020988000f4
:10383c00e30f5000020034000000eb0020988800d9
:10384c0020988000e400070020988000000f78008a
:10385c009e017800e18f5100110032001e007800ab
:10386c00e10f500004003c009e0178000300e000d2
:10387c0008003200120037001e007800e20f5000e2
:10388c000a0032009e017800e38f51000a003200da
:10389c000b003700401f20005500070008003700c0
:1038ac00802520005200070005003700c02b2000a7
:1038bc004f00070002003700003220004c000700c8
:1038cc00f00f200040988800409880000000e8002d
:1038dc004098880041988000900f2000808f500005
:1038ec00060034000000eb0040988800209880000f
:1038fc000000e800309888009eff37004098800058
:10390c007f006000f00f500008003a0030988000f3
:10391c000000e00097ff3200309880000000e900c2
:10392c0030988800d1c2a90092ff370040988000df
:10393c007f0060000000e0008eff3a00d1c2a800ba
:10394c008cff37000000fa000000eb00709a880032
:10395c000000eb00909a8800f0ff2700a09a8800e6
:10396c00e0ab2800b09a8800803e200014000700cd
:10397c000000eb00c09a88000000eb00e09a880081
:10398c00f0ff2700f09a8800e0ab2800009b88002d
:10399c000000eb00109b880000002400309b880086
:1039ac00f0ff2700409b8800e0ab2800509b88006c
:1039bc00401f20000e0007000080fa0000000600e7
:1039cc000200fa00000f78001e00780001002000b1
:1039dc00c000dd000000200002e8230003002000ee
:1039ec0027f30700809a88000080fa000000060088
:1039fc000200fa00000f78001e007800cf80de0075
:103a0c00c000dd000000200002e8230003002000bd
:103a1c002bf30700d09a88001e007800cf80de00c0
:103a2c00c000dd000000200002e82300030020009d
:103a3c0023f30700209b88000080fa00000006009a
:103a4c000600fa00000f7800110798002207980072
:103a5c002e009000a09a8800e23421009e00900075
:103a6c001e007800ed0007000080fa000000060040
:103a7c000800fa00000f7800110798002207980040
:103a8c00330798003e009000f09a88003e009000aa
:103a9c00409b8800823521009e0090001e0078001b
:103aac00de00070022362100ae0090001e007800d8
:103abc00da0007000080fa00000006000800fa0097
:103acc00881f78001007980021079800320798008b
:103adc000000eb00000f78000c0037001e0078008f
:103aec0000004000800078002e0090000084400010
:103afc0088f20700000040008000780010002800c9
:103b0c0000804000000c78001e0fe8009e0078003a
:103b1c001e009000808f5000f0ff39001e009000b6
:103b2c00be0190002e019000ae009000f3f2070051
:103b3c004f0478000080fa00000006000c00fa0028
:103b4c0040079800510798000000eb0030079800e0
:103b5c001b0037006000b800008fbe000000eb00b7
:103b6c0020079800070037006af20700cf80de00bc
:103b7c001e0f40005e9748002e0090000000e800e9
:103b8c00200798002e009000eb0f5000f6ff340039
:103b9c003e00900000004000800078005e00900025
:103bac00008140009e00780000002800008050003a
:103bbc00000978003e0090000000e80030079800f3
:103bcc00be0090004e009000808f5000e1ff390045
:103bdc000080fa00000006000400fa00000f7800d4
:103bec001e007800100798001e009000e10f500096
:103bfc00170032001e009000e10f500004003c0042
:103c0c001e0090000000e000080032002b0037007e
:103c1c001e009000e20f5000160032001e009000b3
:103c2c00e30f50001c00320024003700000020007d
:103c3c00409a880080532800609a88000000200079
:103c4c00309a8800e0462800509a880023003700fc
:103c5c0000002000409a8800c06c2800609a880000
:103c6c0000002000309a880020602800509a8800bc
:103c7c001a00370000002000409a880000862800b7
:103c8c00609a880000002000309a88006079280033
:103c9c00509a88001100370000002000409a8800dc
:103cac00409f2800609a880000002000309a88000d
:103cbc00a0922800509a88000800370000002000cd
:103ccc00409a880080532800609a880000002000e9
:103cdc00309a8800e0462800509a8800409a80006c
:103cec0080007800609a80000001780064732400e2
:103cfc008101780051062000a0322100abf20700b0
:103d0c00a0322100b3f20700309a8000529a800052
:103d1c00c466240080017800510620008033210005
:103d2c00a2f2070080332100aaf207000080fa00fb
:103d3c00000006000600fa00000f7800110798003a
:103d4c0022079800833321001e0178009e0090000a
:103d5c0000082000a6f20700a33221001e01780003
:103d6c00ae00900000082000a1f207000080fa00cd
:103d7c0000000600881f7800891f780081047800f5
:103d8c000204780083027800060028000503530023
:103d9c005202c3000000e90000800800040000008b
:103dac005302c000980378001201c6003800cd0001
:103dbc001201c300cf0478004f0478000000060005
:103dcc008a1f78002402200045022000000578009c
:103ddc000609c3000201e900028008000c00000083
:103dec000509f2000409f2009583cf0006003900a2
:103dfc009483cf00020039008003eb0004003700ed
:103e0c00f083130002003700ff8313008703e800e0
:103e1c00871878004f05780000000600881f78008e
:103e2c00891f78008a1f78008b1f7800320290005f
:103e3c00220490008204900012059000c2059000ac
:103e4c000000e900008008000700000088824400a0
:103e5c00c72ade008502d0008b82420095027800d2
:103e6c001301c0008a8444003100cd000901980080
:103e7c00cf0578004f057800cf0478004f04780008
:103e8c00000006000000fa00cda2a900cde2a900b6
:103e9c00cdc2a900d1a2a800d1e2a800d1c2a8002d
:103eac00d302a800d322a800e402a900e422a900ae
:103ebc00e802a900e822a9000000eb00809b880022
:103ecc000000eb00909b88000080fa0000000600c8
:103edc000200fa000000eb00000f7800d5c2bf0012
:103eec00614060000004e00009003a00809b800003
:103efc000000e800809b8800809b8000ec0f500045
:103f0c0005003a0010002000000f78000200370076
:103f1c000000eb00809b88001e0078000080fa00f7
:103f2c00000006000200fa000000eb00000f780011
:103f3c00d5c2bf00624060000004e00009003a00f6
:103f4c00909b80000000e800909b8800909b800074
:103f5c00ec0f500005003a0010002000000f780014
:103f6c00020037000000eb00909b88001e007800d8
:083f7c000080fa0000000600bd
:020000040000fa
:103f84007413000002000000000000004e13000043
:103f94001e000000000000006c130000040000007c
:103fa400020000000a131e001300000000080000b5
:103fb4002a0b000000000000701300000400000041
:103fc4000000000076130000020000000000000062
:103fd40036470000ca000000000000006c460000e4
:103fe400ca000000000000002a13000024000000a2
:103ff40000000000001400000a000000020000009d
:1040040000000100000000000000000000000000ab
:104014007813000088000000000000000000000089
:020000040000fa
:044024000000fe009a
:00000001FF
